{
  "_format": "hh-sol-artifact-1",
  "contractName": "MyNFT",
  "sourceName": "contracts/MyNFT.sol",
  "abi": [
    {
      "inputs": [],
      "stateMutability": "nonpayable",
      "type": "constructor"
    },
    {
      "anonymous": false,
      "inputs": [
        {
          "indexed": true,
          "internalType": "address",
          "name": "owner",
          "type": "address"
        },
        {
          "indexed": true,
          "internalType": "address",
          "name": "approved",
          "type": "address"
        },
        {
          "indexed": true,
          "internalType": "uint256",
          "name": "tokenId",
          "type": "uint256"
        }
      ],
      "name": "Approval",
      "type": "event"
    },
    {
      "anonymous": false,
      "inputs": [
        {
          "indexed": true,
          "internalType": "address",
          "name": "owner",
          "type": "address"
        },
        {
          "indexed": true,
          "internalType": "address",
          "name": "operator",
          "type": "address"
        },
        {
          "indexed": false,
          "internalType": "bool",
          "name": "approved",
          "type": "bool"
        }
      ],
      "name": "ApprovalForAll",
      "type": "event"
    },
    {
      "anonymous": false,
      "inputs": [
        {
          "indexed": false,
          "internalType": "address",
          "name": "sender",
          "type": "address"
        },
        {
          "indexed": false,
          "internalType": "uint256",
          "name": "tokenId",
          "type": "uint256"
        }
      ],
      "name": "NewNFTMinted",
      "type": "event"
    },
    {
      "anonymous": false,
      "inputs": [
        {
          "indexed": true,
          "internalType": "address",
          "name": "from",
          "type": "address"
        },
        {
          "indexed": true,
          "internalType": "address",
          "name": "to",
          "type": "address"
        },
        {
          "indexed": true,
          "internalType": "uint256",
          "name": "tokenId",
          "type": "uint256"
        }
      ],
      "name": "Transfer",
      "type": "event"
    },
    {
      "inputs": [
        {
          "internalType": "address",
          "name": "to",
          "type": "address"
        },
        {
          "internalType": "uint256",
          "name": "tokenId",
          "type": "uint256"
        }
      ],
      "name": "approve",
      "outputs": [],
      "stateMutability": "nonpayable",
      "type": "function"
    },
    {
      "inputs": [
        {
          "internalType": "address",
          "name": "owner",
          "type": "address"
        }
      ],
      "name": "balanceOf",
      "outputs": [
        {
          "internalType": "uint256",
          "name": "",
          "type": "uint256"
        }
      ],
      "stateMutability": "view",
      "type": "function"
    },
    {
      "inputs": [
        {
          "internalType": "uint256",
          "name": "tokenId",
          "type": "uint256"
        }
      ],
      "name": "getApproved",
      "outputs": [
        {
          "internalType": "address",
          "name": "",
          "type": "address"
        }
      ],
      "stateMutability": "view",
      "type": "function"
    },
    {
      "inputs": [],
      "name": "getTotalMinted",
      "outputs": [
        {
          "internalType": "uint256",
          "name": "",
          "type": "uint256"
        }
      ],
      "stateMutability": "view",
      "type": "function"
    },
    {
      "inputs": [
        {
          "internalType": "address",
          "name": "owner",
          "type": "address"
        },
        {
          "internalType": "address",
          "name": "operator",
          "type": "address"
        }
      ],
      "name": "isApprovedForAll",
      "outputs": [
        {
          "internalType": "bool",
          "name": "",
          "type": "bool"
        }
      ],
      "stateMutability": "view",
      "type": "function"
    },
    {
      "inputs": [],
      "name": "makeAnNFT",
      "outputs": [],
      "stateMutability": "nonpayable",
      "type": "function"
    },
    {
      "inputs": [],
      "name": "name",
      "outputs": [
        {
          "internalType": "string",
          "name": "",
          "type": "string"
        }
      ],
      "stateMutability": "view",
      "type": "function"
    },
    {
      "inputs": [
        {
          "internalType": "uint256",
          "name": "tokenId",
          "type": "uint256"
        }
      ],
      "name": "ownerOf",
      "outputs": [
        {
          "internalType": "address",
          "name": "",
          "type": "address"
        }
      ],
      "stateMutability": "view",
      "type": "function"
    },
    {
      "inputs": [
        {
          "internalType": "uint256",
          "name": "tokenId",
          "type": "uint256"
        }
      ],
      "name": "pickRandomBackgroundColor",
      "outputs": [
        {
          "internalType": "string",
          "name": "",
          "type": "string"
        }
      ],
      "stateMutability": "view",
      "type": "function"
    },
    {
      "inputs": [
        {
          "internalType": "uint256",
          "name": "tokenId",
          "type": "uint256"
        }
      ],
      "name": "pickRandomFirstWord",
      "outputs": [
        {
          "internalType": "string",
          "name": "",
          "type": "string"
        }
      ],
      "stateMutability": "view",
      "type": "function"
    },
    {
      "inputs": [
        {
          "internalType": "uint256",
          "name": "tokenId",
          "type": "uint256"
        }
      ],
      "name": "pickRandomSecondWord",
      "outputs": [
        {
          "internalType": "string",
          "name": "",
          "type": "string"
        }
      ],
      "stateMutability": "view",
      "type": "function"
    },
    {
      "inputs": [
        {
          "internalType": "uint256",
          "name": "tokenId",
          "type": "uint256"
        }
      ],
      "name": "pickRandomTextColor",
      "outputs": [
        {
          "internalType": "string",
          "name": "",
          "type": "string"
        }
      ],
      "stateMutability": "view",
      "type": "function"
    },
    {
      "inputs": [
        {
          "internalType": "uint256",
          "name": "tokenId",
          "type": "uint256"
        }
      ],
      "name": "pickRandomThirdWord",
      "outputs": [
        {
          "internalType": "string",
          "name": "",
          "type": "string"
        }
      ],
      "stateMutability": "view",
      "type": "function"
    },
    {
      "inputs": [
        {
          "internalType": "address",
          "name": "from",
          "type": "address"
        },
        {
          "internalType": "address",
          "name": "to",
          "type": "address"
        },
        {
          "internalType": "uint256",
          "name": "tokenId",
          "type": "uint256"
        }
      ],
      "name": "safeTransferFrom",
      "outputs": [],
      "stateMutability": "nonpayable",
      "type": "function"
    },
    {
      "inputs": [
        {
          "internalType": "address",
          "name": "from",
          "type": "address"
        },
        {
          "internalType": "address",
          "name": "to",
          "type": "address"
        },
        {
          "internalType": "uint256",
          "name": "tokenId",
          "type": "uint256"
        },
        {
          "internalType": "bytes",
          "name": "_data",
          "type": "bytes"
        }
      ],
      "name": "safeTransferFrom",
      "outputs": [],
      "stateMutability": "nonpayable",
      "type": "function"
    },
    {
      "inputs": [
        {
          "internalType": "address",
          "name": "operator",
          "type": "address"
        },
        {
          "internalType": "bool",
          "name": "approved",
          "type": "bool"
        }
      ],
      "name": "setApprovalForAll",
      "outputs": [],
      "stateMutability": "nonpayable",
      "type": "function"
    },
    {
      "inputs": [
        {
          "internalType": "bytes4",
          "name": "interfaceId",
          "type": "bytes4"
        }
      ],
      "name": "supportsInterface",
      "outputs": [
        {
          "internalType": "bool",
          "name": "",
          "type": "bool"
        }
      ],
      "stateMutability": "view",
      "type": "function"
    },
    {
      "inputs": [],
      "name": "symbol",
      "outputs": [
        {
          "internalType": "string",
          "name": "",
          "type": "string"
        }
      ],
      "stateMutability": "view",
      "type": "function"
    },
    {
      "inputs": [
        {
          "internalType": "uint256",
          "name": "tokenId",
          "type": "uint256"
        }
      ],
      "name": "tokenURI",
      "outputs": [
        {
          "internalType": "string",
          "name": "",
          "type": "string"
        }
      ],
      "stateMutability": "view",
      "type": "function"
    },
    {
      "inputs": [
        {
          "internalType": "address",
          "name": "from",
          "type": "address"
        },
        {
          "internalType": "address",
          "name": "to",
          "type": "address"
        },
        {
          "internalType": "uint256",
          "name": "tokenId",
          "type": "uint256"
        }
      ],
      "name": "transferFrom",
      "outputs": [],
      "stateMutability": "nonpayable",
      "type": "function"
    }
  ],
  "bytecode": "0x6080604052600060085560326009556040518060a00160405280607781526020016200569c60779139600a90805190602001906200003f9291906200142d565b50604051806080016040528060578152602001620055cc60579139600b9080519060200190620000719291906200142d565b506040518060800160405280605781526020016200562360579139600c9080519060200190620000a39291906200142d565b50604051806101e001604052806040518060400160405280600481526020017f5468652d0000000000000000000000000000000000000000000000000000000081525081526020016040518060400160405280600881526020017f53757072656d652d00000000000000000000000000000000000000000000000081525081526020016040518060400160405280600781526020017f4d61737465722d0000000000000000000000000000000000000000000000000081525081526020016040518060400160405280600981526020017f4f7665726c6f72642d000000000000000000000000000000000000000000000081525081526020016040518060400160405280600981526020017f546f702d546965722d000000000000000000000000000000000000000000000081525081526020016040518060400160405280600581526020017f476f61742d00000000000000000000000000000000000000000000000000000081525081526020016040518060400160405280600581526020017f4b696e672d00000000000000000000000000000000000000000000000000000081525081526020016040518060400160405280600581526020017f426f73732d00000000000000000000000000000000000000000000000000000081525081526020016040518060400160405280600581526020017f576176792d00000000000000000000000000000000000000000000000000000081525081526020016040518060400160405280600881526020017f46696e657373652d00000000000000000000000000000000000000000000000081525081526020016040518060400160405280600681526020017f536c69636b2d000000000000000000000000000000000000000000000000000081525081526020016040518060400160405280600781526020017f536d6f6f74682d0000000000000000000000000000000000000000000000000081525081526020016040518060400160405280600781526020017f5374757264792d0000000000000000000000000000000000000000000000000081525081526020016040518060400160405280600681526020017f42617369632d000000000000000000000000000000000000000000000000000081525081526020016040518060400160405280600581526020017f476177642d000000000000000000000000000000000000000000000000000000815250815250600d90600f62000435929190620014be565b50604051806101e001604052806040518060400160405280600681526020017f4c616d626f20000000000000000000000000000000000000000000000000000081525081526020016040518060400160405280600481526020017f424d57200000000000000000000000000000000000000000000000000000000081525081526020016040518060400160405280600681526020017f52616e676520000000000000000000000000000000000000000000000000000081525081526020016040518060400160405280600881526020017f472d5761676f6e2000000000000000000000000000000000000000000000000081525081526020016040518060400160405280600981526020017f466f72676961746f20000000000000000000000000000000000000000000000081525081526020016040518060400160405280600881526020017f466572726172692000000000000000000000000000000000000000000000000081525081526020016040518060400160405280600681526020017f5465736c6120000000000000000000000000000000000000000000000000000081525081526020016040518060400160405280600781526020017f52697669616e200000000000000000000000000000000000000000000000000081525081526020016040518060400160405280600981526020017f426f786672616d6520000000000000000000000000000000000000000000000081525081526020016040518060400160405280600881526020017f4375746c6173732000000000000000000000000000000000000000000000000081525081526020016040518060400160405280600881526020017f436170726963652000000000000000000000000000000000000000000000000081525081526020016040518060400160405280600781526020017f496d70616c61200000000000000000000000000000000000000000000000000081525081526020016040518060400160405280600781526020017f4e697373616e200000000000000000000000000000000000000000000000000081525081526020016040518060400160405280600781526020017f43616d696e6f200000000000000000000000000000000000000000000000000081525081526020016040518060400160405280600681526020017f5072697573200000000000000000000000000000000000000000000000000000815250815250600e90600f620007c7929190620014be565b50604051806101e001604052806040518060400160405280600881526020017f417373617373696e00000000000000000000000000000000000000000000000081525081526020016040518060400160405280600981526020017f5261696e7761746572000000000000000000000000000000000000000000000081525081526020016040518060400160405280600781526020017f48616e646c65730000000000000000000000000000000000000000000000000081525081526020016040518060400160405280600481526020017f486f70730000000000000000000000000000000000000000000000000000000081525081526020016040518060400160405280600681526020017f436c616d7073000000000000000000000000000000000000000000000000000081525081526020016040518060400160405280600881526020017f466f6f74776f726b00000000000000000000000000000000000000000000000081525081526020016040518060400160405280600881526020017f53686f7774696d6500000000000000000000000000000000000000000000000081525081526020016040518060400160405280600481526020017f436865660000000000000000000000000000000000000000000000000000000081525081526020016040518060400160405280600581526020017f537065656400000000000000000000000000000000000000000000000000000081525081526020016040518060400160405280600781526020017f57617272696f720000000000000000000000000000000000000000000000000081525081526020016040518060400160405280600481526020017f4861776b0000000000000000000000000000000000000000000000000000000081525081526020016040518060400160405280600581526020017f4368616d7000000000000000000000000000000000000000000000000000000081525081526020016040518060400160405280600681526020017f4c6567656e64000000000000000000000000000000000000000000000000000081525081526020016040518060400160405280600481526020017f4d7974680000000000000000000000000000000000000000000000000000000081525081526020016040518060400160405280600881526020017f466f6f74776f726b000000000000000000000000000000000000000000000000815250815250600f90600f62000b59929190620014be565b50604051806101e001604052806040518060400160405280600781526020017f234344433641450000000000000000000000000000000000000000000000000081525081526020016040518060400160405280600781526020017f234634454445410000000000000000000000000000000000000000000000000081525081526020016040518060400160405280600781526020017f234441433642350000000000000000000000000000000000000000000000000081525081526020016040518060400160405280600781526020017f234634463446390000000000000000000000000000000000000000000000000081525081526020016040518060400160405280600781526020017f234339463946460000000000000000000000000000000000000000000000000081525081526020016040518060400160405280600781526020017f234333423239390000000000000000000000000000000000000000000000000081525081526020016040518060400160405280600781526020017f234330423742310000000000000000000000000000000000000000000000000081525081526020016040518060400160405280600781526020017f234632463746320000000000000000000000000000000000000000000000000081525081526020016040518060400160405280600781526020017f234139414341390000000000000000000000000000000000000000000000000081525081526020016040518060400160405280600781526020017f234246433342410000000000000000000000000000000000000000000000000081525081526020016040518060400160405280600781526020017f234634454242450000000000000000000000000000000000000000000000000081525081526020016040518060400160405280600781526020017f234337464644410000000000000000000000000000000000000000000000000081525081526020016040518060400160405280600781526020017f233437344134380000000000000000000000000000000000000000000000000081525081526020016040518060400160405280600781526020017f234545463145460000000000000000000000000000000000000000000000000081525081526020016040518060400160405280600781526020017f2346394130334600000000000000000000000000000000000000000000000000815250815250601090600f62000eeb929190620014be565b50604051806101e001604052806040518060400160405280600781526020017f233030303030300000000000000000000000000000000000000000000000000081525081526020016040518060400160405280600781526020017f233330333433460000000000000000000000000000000000000000000000000081525081526020016040518060400160405280600781526020017f233143323332310000000000000000000000000000000000000000000000000081525081526020016040518060400160405280600781526020017f233244333034370000000000000000000000000000000000000000000000000081525081526020016040518060400160405280600781526020017f233142393938420000000000000000000000000000000000000000000000000081525081526020016040518060400160405280600781526020017f233041303930380000000000000000000000000000000000000000000000000081525081526020016040518060400160405280600781526020017f233439313131430000000000000000000000000000000000000000000000000081525081526020016040518060400160405280600781526020017f233043363239310000000000000000000000000000000000000000000000000081525081526020016040518060400160405280600781526020017f234646343030300000000000000000000000000000000000000000000000000081525081526020016040518060400160405280600781526020017f233836363135430000000000000000000000000000000000000000000000000081525081526020016040518060400160405280600781526020017f233534333844430000000000000000000000000000000000000000000000000081525081526020016040518060400160405280600781526020017f233335374445440000000000000000000000000000000000000000000000000081525081526020016040518060400160405280600781526020017f234530314134460000000000000000000000000000000000000000000000000081525081526020016040518060400160405280600781526020017f234636414532440000000000000000000000000000000000000000000000000081525081526020016040518060400160405280600781526020017f2336363130463200000000000000000000000000000000000000000000000000815250815250601190600f6200127d929190620014be565b503480156200128b57600080fd5b506040518060400160405280600881526020017f4e414d5a5f4e46540000000000000000000000000000000000000000000000008152506040518060400160405280600481526020017f4e414d5a000000000000000000000000000000000000000000000000000000008152508160009080519060200190620013109291906200142d565b508060019080519060200190620013299291906200142d565b5050506200135b6040518060600160405280602281526020016200567a602291396200136160201b620015f21760201c565b620016df565b6200140181604051602401620013789190620015f3565b6040516020818303038152906040527f41304fac000000000000000000000000000000000000000000000000000000007bffffffffffffffffffffffffffffffffffffffffffffffffffffffff19166020820180517bffffffffffffffffffffffffffffffffffffffffffffffffffffffff83818316178352505050506200140460201b60201c565b50565b60008151905060006a636f6e736f6c652e6c6f679050602083016000808483855afa5050505050565b8280546200143b9062001669565b90600052602060002090601f0160209004810192826200145f5760008555620014ab565b82601f106200147a57805160ff1916838001178555620014ab565b82800160010185558215620014ab579182015b82811115620014aa5782518255916020019190600101906200148d565b5b509050620014ba919062001525565b5090565b82805482825590600052602060002090810192821562001512579160200282015b8281111562001511578251829080519060200190620015009291906200142d565b5091602001919060010190620014df565b5b50905062001521919062001544565b5090565b5b808211156200154057600081600090555060010162001526565b5090565b5b808211156200156857600081816200155e91906200156c565b5060010162001545565b5090565b5080546200157a9062001669565b6000825580601f106200158e5750620015af565b601f016020900490600052602060002090810190620015ae919062001525565b5b50565b6000620015bf8262001617565b620015cb818562001622565b9350620015dd81856020860162001633565b620015e881620016ce565b840191505092915050565b600060208201905081810360008301526200160f8184620015b2565b905092915050565b600081519050919050565b600082825260208201905092915050565b60005b838110156200165357808201518184015260208101905062001636565b8381111562001663576000848401525b50505050565b600060028204905060018216806200168257607f821691505b602082108114156200169957620016986200169f565b5b50919050565b7f4e487b7100000000000000000000000000000000000000000000000000000000600052602260045260246000fd5b6000601f19601f8301169050919050565b613edd80620016ef6000396000f3fe608060405234801561001057600080fd5b506004361061012c5760003560e01c806395d89b41116100ad578063c87b56dd11610071578063c87b56dd14610367578063e4d098e114610397578063e71ed91d146103a1578063e985e9c5146103d1578063f4e732ef146104015761012c565b806395d89b41146102b1578063a22cb465146102cf578063b187301f146102eb578063b88d4fde1461031b578063c575757a146103375761012c565b806323b872dd116100f457806323b872dd146101e95780632de38d681461020557806342842e0e146102355780636352211e1461025157806370a08231146102815761012c565b806301ffc9a71461013157806306fdde0314610161578063081812fc1461017f578063095ea7b3146101af5780630ca1c5c9146101cb575b600080fd5b61014b60048036038101906101469190612921565b610431565b6040516101589190613703565b60405180910390f35b610169610513565b604051610176919061371e565b60405180910390f35b61019960048036038101906101949190612973565b6105a5565b6040516101a69190613673565b60405180910390f35b6101c960048036038101906101c491906128e5565b61062a565b005b6101d3610742565b6040516101e091906139ce565b60405180910390f35b61020360048036038101906101fe91906127df565b61074c565b005b61021f600480360381019061021a9190612973565b6107ac565b60405161022c919061371e565b60405180910390f35b61024f600480360381019061024a91906127df565b6108ca565b005b61026b60048036038101906102669190612973565b6108ea565b6040516102789190613673565b60405180910390f35b61029b6004803603810190610296919061277a565b61099c565b6040516102a891906139ce565b60405180910390f35b6102b9610a54565b6040516102c6919061371e565b60405180910390f35b6102e960048036038101906102e491906128a9565b610ae6565b005b61030560048036038101906103009190612973565b610c67565b604051610312919061371e565b60405180910390f35b6103356004803603810190610330919061282e565b610d85565b005b610351600480360381019061034c9190612973565b610de7565b60405161035e919061371e565b60405180910390f35b610381600480360381019061037c9190612973565b610f05565b60405161038e919061371e565b60405180910390f35b61039f611057565b005b6103bb60048036038101906103b69190612973565b611322565b6040516103c8919061371e565b60405180910390f35b6103eb60048036038101906103e691906127a3565b611440565b6040516103f89190613703565b60405180910390f35b61041b60048036038101906104169190612973565b6114d4565b604051610428919061371e565b60405180910390f35b60007f80ac58cd000000000000000000000000000000000000000000000000000000007bffffffffffffffffffffffffffffffffffffffffffffffffffffffff1916827bffffffffffffffffffffffffffffffffffffffffffffffffffffffff191614806104fc57507f5b5e139f000000000000000000000000000000000000000000000000000000007bffffffffffffffffffffffffffffffffffffffffffffffffffffffff1916827bffffffffffffffffffffffffffffffffffffffffffffffffffffffff1916145b8061050c575061050b8261168b565b5b9050919050565b60606000805461052290613c6d565b80601f016020809104026020016040519081016040528092919081815260200182805461054e90613c6d565b801561059b5780601f106105705761010080835404028352916020019161059b565b820191906000526020600020905b81548152906001019060200180831161057e57829003601f168201915b5050505050905090565b60006105b0826116f5565b6105ef576040517f08c379a00000000000000000000000000000000000000000000000000000000081526004016105e69061390e565b60405180910390fd5b6004600083815260200190815260200160002060009054906101000a900473ffffffffffffffffffffffffffffffffffffffff169050919050565b6000610635826108ea565b90508073ffffffffffffffffffffffffffffffffffffffff168373ffffffffffffffffffffffffffffffffffffffff1614156106a6576040517f08c379a000000000000000000000000000000000000000000000000000000000815260040161069d9061398e565b60405180910390fd5b8073ffffffffffffffffffffffffffffffffffffffff166106c5611761565b73ffffffffffffffffffffffffffffffffffffffff1614806106f457506106f3816106ee611761565b611440565b5b610733576040517f08c379a000000000000000000000000000000000000000000000000000000000815260040161072a9061384e565b60405180910390fd5b61073d8383611769565b505050565b6000600854905090565b61075d610757611761565b82611822565b61079c576040517f08c379a0000000000000000000000000000000000000000000000000000000008152600401610793906139ae565b60405180910390fd5b6107a7838383611900565b505050565b606060006107e06107bc84611b5c565b6040516020016107cc919061362f565b604051602081830303815290604052611d09565b9050600d80549050816107f39190613ce8565b9050600d818154811061082f577f4e487b7100000000000000000000000000000000000000000000000000000000600052603260045260246000fd5b90600052602060002001805461084490613c6d565b80601f016020809104026020016040519081016040528092919081815260200182805461087090613c6d565b80156108bd5780601f10610892576101008083540402835291602001916108bd565b820191906000526020600020905b8154815290600101906020018083116108a057829003601f168201915b5050505050915050919050565b6108e583838360405180602001604052806000815250610d85565b505050565b6000806002600084815260200190815260200160002060009054906101000a900473ffffffffffffffffffffffffffffffffffffffff169050600073ffffffffffffffffffffffffffffffffffffffff168173ffffffffffffffffffffffffffffffffffffffff161415610993576040517f08c379a000000000000000000000000000000000000000000000000000000000815260040161098a9061388e565b60405180910390fd5b80915050919050565b60008073ffffffffffffffffffffffffffffffffffffffff168273ffffffffffffffffffffffffffffffffffffffff161415610a0d576040517f08c379a0000000000000000000000000000000000000000000000000000000008152600401610a049061386e565b60405180910390fd5b600360008373ffffffffffffffffffffffffffffffffffffffff1673ffffffffffffffffffffffffffffffffffffffff168152602001908152602001600020549050919050565b606060018054610a6390613c6d565b80601f0160208091040260200160405190810160405280929190818152602001828054610a8f90613c6d565b8015610adc5780601f10610ab157610100808354040283529160200191610adc565b820191906000526020600020905b815481529060010190602001808311610abf57829003601f168201915b5050505050905090565b610aee611761565b73ffffffffffffffffffffffffffffffffffffffff168273ffffffffffffffffffffffffffffffffffffffff161415610b5c576040517f08c379a0000000000000000000000000000000000000000000000000000000008152600401610b539061380e565b60405180910390fd5b8060056000610b69611761565b73ffffffffffffffffffffffffffffffffffffffff1673ffffffffffffffffffffffffffffffffffffffff16815260200190815260200160002060008473ffffffffffffffffffffffffffffffffffffffff1673ffffffffffffffffffffffffffffffffffffffff16815260200190815260200160002060006101000a81548160ff0219169083151502179055508173ffffffffffffffffffffffffffffffffffffffff16610c16611761565b73ffffffffffffffffffffffffffffffffffffffff167f17307eab39ab6107e8899845ad3d59bd9653f200f220920489ca2b5937696c3183604051610c5b9190613703565b60405180910390a35050565b60606000610c9b610c7784611b5c565b604051602001610c879190613584565b604051602081830303815290604052611d09565b9050600e8054905081610cae9190613ce8565b9050600e8181548110610cea577f4e487b7100000000000000000000000000000000000000000000000000000000600052603260045260246000fd5b906000526020600020018054610cff90613c6d565b80601f0160208091040260200160405190810160405280929190818152602001828054610d2b90613c6d565b8015610d785780601f10610d4d57610100808354040283529160200191610d78565b820191906000526020600020905b815481529060010190602001808311610d5b57829003601f168201915b5050505050915050919050565b610d96610d90611761565b83611822565b610dd5576040517f08c379a0000000000000000000000000000000000000000000000000000000008152600401610dcc906139ae565b60405180910390fd5b610de184848484611d3c565b50505050565b60606000610e1b610df784611b5c565b604051602001610e079190613562565b604051602081830303815290604052611d09565b9050600f8054905081610e2e9190613ce8565b9050600f8181548110610e6a577f4e487b7100000000000000000000000000000000000000000000000000000000600052603260045260246000fd5b906000526020600020018054610e7f90613c6d565b80601f0160208091040260200160405190810160405280929190818152602001828054610eab90613c6d565b8015610ef85780601f10610ecd57610100808354040283529160200191610ef8565b820191906000526020600020905b815481529060010190602001808311610edb57829003601f168201915b5050505050915050919050565b6060610f10826116f5565b610f4f576040517f08c379a0000000000000000000000000000000000000000000000000000000008152600401610f46906138ee565b60405180910390fd5b6000600660008481526020019081526020016000208054610f6f90613c6d565b80601f0160208091040260200160405190810160405280929190818152602001828054610f9b90613c6d565b8015610fe85780601f10610fbd57610100808354040283529160200191610fe8565b820191906000526020600020905b815481529060010190602001808311610fcb57829003601f168201915b505050505090506000610ff9611d98565b905060008151141561100f578192505050611052565b60008251111561104457808260405160200161102c929190613488565b60405160208183030381529060405292505050611052565b61104d84611daf565b925050505b919050565b6009546008541061109d576040517f08c379a00000000000000000000000000000000000000000000000000000000081526004016110949061392e565b60405180910390fd5b60006110a96007611e56565b905060006110b6826107ac565b905060006110c383610c67565b905060006110d084610de7565b905060008383836040516020016110e9939291906134ac565b60405160208183030381529060405290506000611105866114d4565b9050600061111287611322565b90506000600a83600b84600c88604051602001611134969594939291906134dd565b604051602081830303815290604052905060006111798561115484611e64565b6040516020016111659291906135ea565b604051602081830303815290604052611e64565b905060008160405160200161118e9190613651565b60405160208183030381529060405290506111dd6040518060400160405280601281526020017f0a2d2d2d2d2d2d2d2d2d2d2d2d2d2d2d2d2d00000000000000000000000000008152506115f2565b611205816040516020016111f19190613540565b6040516020818303038152906040526115f2565b6112436040518060400160405280601281526020017f0a2d2d2d2d2d2d2d2d2d2d2d2d2d2d2d2d2d00000000000000000000000000008152506115f2565b61124d338b612022565b6112578a82612040565b61126160076120b4565b611284604051806060016040528060258152602001613e43602591398b336120ca565b6008600081548092919061129790613c9f565b91905055506112dd6040518060400160405280601f81526020017f546f74616c206e756d626572206f66204e465473206d696e7465642069733a00815250600854612169565b7f1c05098ed1ff38e6238d2b1b04b2c7977d4c94ce651bda6473f9dba8dbf01da0338b60405161130e9291906136da565b60405180910390a150505050505050505050565b6060600061135661133284611b5c565b60405160200161134291906135c8565b604051602081830303815290604052611d09565b9050601180549050816113699190613ce8565b9050601181815481106113a5577f4e487b7100000000000000000000000000000000000000000000000000000000600052603260045260246000fd5b9060005260206000200180546113ba90613c6d565b80601f01602080910402602001604051908101604052809291908181526020018280546113e690613c6d565b80156114335780601f1061140857610100808354040283529160200191611433565b820191906000526020600020905b81548152906001019060200180831161141657829003601f168201915b5050505050915050919050565b6000600560008473ffffffffffffffffffffffffffffffffffffffff1673ffffffffffffffffffffffffffffffffffffffff16815260200190815260200160002060008373ffffffffffffffffffffffffffffffffffffffff1673ffffffffffffffffffffffffffffffffffffffff16815260200190815260200160002060009054906101000a900460ff16905092915050565b606060006115086114e484611b5c565b6040516020016114f491906135a6565b604051602081830303815290604052611d09565b90506010805490508161151b9190613ce8565b905060108181548110611557577f4e487b7100000000000000000000000000000000000000000000000000000000600052603260045260246000fd5b90600052602060002001805461156c90613c6d565b80601f016020809104026020016040519081016040528092919081815260200182805461159890613c6d565b80156115e55780601f106115ba576101008083540402835291602001916115e5565b820191906000526020600020905b8154815290600101906020018083116115c857829003601f168201915b5050505050915050919050565b61168881604051602401611606919061371e565b6040516020818303038152906040527f41304fac000000000000000000000000000000000000000000000000000000007bffffffffffffffffffffffffffffffffffffffffffffffffffffffff19166020820180517bffffffffffffffffffffffffffffffffffffffffffffffffffffffff8381831617835250505050612205565b50565b60007f01ffc9a7000000000000000000000000000000000000000000000000000000007bffffffffffffffffffffffffffffffffffffffffffffffffffffffff1916827bffffffffffffffffffffffffffffffffffffffffffffffffffffffff1916149050919050565b60008073ffffffffffffffffffffffffffffffffffffffff166002600084815260200190815260200160002060009054906101000a900473ffffffffffffffffffffffffffffffffffffffff1673ffffffffffffffffffffffffffffffffffffffff1614159050919050565b600033905090565b816004600083815260200190815260200160002060006101000a81548173ffffffffffffffffffffffffffffffffffffffff021916908373ffffffffffffffffffffffffffffffffffffffff160217905550808273ffffffffffffffffffffffffffffffffffffffff166117dc836108ea565b73ffffffffffffffffffffffffffffffffffffffff167f8c5be1e5ebec7d5bd14f71427d1e84f3dd0314c0f7b2291e5b200ac8c7c3b92560405160405180910390a45050565b600061182d826116f5565b61186c576040517f08c379a00000000000000000000000000000000000000000000000000000000081526004016118639061382e565b60405180910390fd5b6000611877836108ea565b90508073ffffffffffffffffffffffffffffffffffffffff168473ffffffffffffffffffffffffffffffffffffffff1614806118e657508373ffffffffffffffffffffffffffffffffffffffff166118ce846105a5565b73ffffffffffffffffffffffffffffffffffffffff16145b806118f757506118f68185611440565b5b91505092915050565b8273ffffffffffffffffffffffffffffffffffffffff16611920826108ea565b73ffffffffffffffffffffffffffffffffffffffff1614611976576040517f08c379a000000000000000000000000000000000000000000000000000000000815260040161196d9061394e565b60405180910390fd5b600073ffffffffffffffffffffffffffffffffffffffff168273ffffffffffffffffffffffffffffffffffffffff1614156119e6576040517f08c379a00000000000000000000000000000000000000000000000000000000081526004016119dd906137ee565b60405180910390fd5b6119f183838361222e565b6119fc600082611769565b6001600360008573ffffffffffffffffffffffffffffffffffffffff1673ffffffffffffffffffffffffffffffffffffffff1681526020019081526020016000206000828254611a4c9190613b83565b925050819055506001600360008473ffffffffffffffffffffffffffffffffffffffff1673ffffffffffffffffffffffffffffffffffffffff1681526020019081526020016000206000828254611aa39190613aa2565b92505081905550816002600083815260200190815260200160002060006101000a81548173ffffffffffffffffffffffffffffffffffffffff021916908373ffffffffffffffffffffffffffffffffffffffff160217905550808273ffffffffffffffffffffffffffffffffffffffff168473ffffffffffffffffffffffffffffffffffffffff167fddf252ad1be2c89b69c2b068fc378daa952ba7f163c4a11628f55a4df523b3ef60405160405180910390a4505050565b60606000821415611ba4576040518060400160405280600181526020017f30000000000000000000000000000000000000000000000000000000000000008152509050611d04565b600082905060005b60008214611bd6578080611bbf90613c9f565b915050600a82611bcf9190613af8565b9150611bac565b60008167ffffffffffffffff811115611c18577f4e487b7100000000000000000000000000000000000000000000000000000000600052604160045260246000fd5b6040519080825280601f01601f191660200182016040528015611c4a5781602001600182028036833780820191505090505b5090505b60008514611cfd57600182611c639190613b83565b9150600a85611c729190613ce8565b6030611c7e9190613aa2565b60f81b818381518110611cba577f4e487b7100000000000000000000000000000000000000000000000000000000600052603260045260246000fd5b60200101907effffffffffffffffffffffffffffffffffffffffffffffffffffffffffffff1916908160001a905350600a85611cf69190613af8565b9450611c4e565b8093505050505b919050565b600081604051602001611d1c9190613471565b6040516020818303038152906040528051906020012060001c9050919050565b611d47848484611900565b611d5384848484612233565b611d92576040517f08c379a0000000000000000000000000000000000000000000000000000000008152600401611d89906137ae565b60405180910390fd5b50505050565b606060405180602001604052806000815250905090565b6060611dba826116f5565b611df9576040517f08c379a0000000000000000000000000000000000000000000000000000000008152600401611df09061396e565b60405180910390fd5b6000611e03611d98565b90506000815111611e235760405180602001604052806000815250611e4e565b80611e2d84611b5c565b604051602001611e3e929190613488565b6040516020818303038152906040525b915050919050565b600081600001549050919050565b60606000825190506000811415611e8d576040518060200160405280600081525091505061201d565b60006003600283611e9e9190613aa2565b611ea89190613af8565b6004611eb49190613b29565b90506000602082611ec59190613aa2565b67ffffffffffffffff811115611f04577f4e487b7100000000000000000000000000000000000000000000000000000000600052604160045260246000fd5b6040519080825280601f01601f191660200182016040528015611f365781602001600182028036833780820191505090505b5090506000604051806060016040528060408152602001613e68604091399050600181016020830160005b86811015611fda5760038101905062ffffff818a015116603f8160121c168401518060081b905060ff603f83600c1c1686015116810190508060081b905060ff603f8360061c1686015116810190508060081b905060ff603f831686015116810190508060e01b90508084526004840193505050611f61565b506003860660018114611ff457600281146120045761200f565b613d3d60f01b600283035261200f565b603d60f81b60018303525b508484525050819450505050505b919050565b61203c8282604051806020016040528060008152506123ca565b5050565b612049826116f5565b612088576040517f08c379a000000000000000000000000000000000000000000000000000000000815260040161207f906138ae565b60405180910390fd5b806006600084815260200190815260200160002090805190602001906120af929190612606565b505050565b6001816000016000828254019250508190555050565b6121648383836040516024016120e293929190613770565b6040516020818303038152906040527fe3849f79000000000000000000000000000000000000000000000000000000007bffffffffffffffffffffffffffffffffffffffffffffffffffffffff19166020820180517bffffffffffffffffffffffffffffffffffffffffffffffffffffffff8381831617835250505050612205565b505050565b612201828260405160240161217f929190613740565b6040516020818303038152906040527f9710a9d0000000000000000000000000000000000000000000000000000000007bffffffffffffffffffffffffffffffffffffffffffffffffffffffff19166020820180517bffffffffffffffffffffffffffffffffffffffffffffffffffffffff8381831617835250505050612205565b5050565b60008151905060006a636f6e736f6c652e6c6f679050602083016000808483855afa5050505050565b505050565b60006122548473ffffffffffffffffffffffffffffffffffffffff16612425565b156123bd578373ffffffffffffffffffffffffffffffffffffffff1663150b7a0261227d611761565b8786866040518563ffffffff1660e01b815260040161229f949392919061368e565b602060405180830381600087803b1580156122b957600080fd5b505af19250505080156122ea57506040513d601f19601f820116820180604052508101906122e7919061294a565b60015b61236d573d806000811461231a576040519150601f19603f3d011682016040523d82523d6000602084013e61231f565b606091505b50600081511415612365576040517f08c379a000000000000000000000000000000000000000000000000000000000815260040161235c906137ae565b60405180910390fd5b805181602001fd5b63150b7a0260e01b7bffffffffffffffffffffffffffffffffffffffffffffffffffffffff1916817bffffffffffffffffffffffffffffffffffffffffffffffffffffffff1916149150506123c2565b600190505b949350505050565b6123d48383612438565b6123e16000848484612233565b612420576040517f08c379a0000000000000000000000000000000000000000000000000000000008152600401612417906137ae565b60405180910390fd5b505050565b600080823b905060008111915050919050565b600073ffffffffffffffffffffffffffffffffffffffff168273ffffffffffffffffffffffffffffffffffffffff1614156124a8576040517f08c379a000000000000000000000000000000000000000000000000000000000815260040161249f906138ce565b60405180910390fd5b6124b1816116f5565b156124f1576040517f08c379a00000000000000000000000000000000000000000000000000000000081526004016124e8906137ce565b60405180910390fd5b6124fd6000838361222e565b6001600360008473ffffffffffffffffffffffffffffffffffffffff1673ffffffffffffffffffffffffffffffffffffffff168152602001908152602001600020600082825461254d9190613aa2565b92505081905550816002600083815260200190815260200160002060006101000a81548173ffffffffffffffffffffffffffffffffffffffff021916908373ffffffffffffffffffffffffffffffffffffffff160217905550808273ffffffffffffffffffffffffffffffffffffffff16600073ffffffffffffffffffffffffffffffffffffffff167fddf252ad1be2c89b69c2b068fc378daa952ba7f163c4a11628f55a4df523b3ef60405160405180910390a45050565b82805461261290613c6d565b90600052602060002090601f016020900481019282612634576000855561267b565b82601f1061264d57805160ff191683800117855561267b565b8280016001018555821561267b579182015b8281111561267a57825182559160200191906001019061265f565b5b509050612688919061268c565b5090565b5b808211156126a557600081600090555060010161268d565b5090565b60006126bc6126b784613a1a565b6139e9565b9050828152602081018484840111156126d457600080fd5b6126df848285613c2b565b509392505050565b6000813590506126f681613de6565b92915050565b60008135905061270b81613dfd565b92915050565b60008135905061272081613e14565b92915050565b60008151905061273581613e14565b92915050565b600082601f83011261274c57600080fd5b813561275c8482602086016126a9565b91505092915050565b60008135905061277481613e2b565b92915050565b60006020828403121561278c57600080fd5b600061279a848285016126e7565b91505092915050565b600080604083850312156127b657600080fd5b60006127c4858286016126e7565b92505060206127d5858286016126e7565b9150509250929050565b6000806000606084860312156127f457600080fd5b6000612802868287016126e7565b9350506020612813868287016126e7565b925050604061282486828701612765565b9150509250925092565b6000806000806080858703121561284457600080fd5b6000612852878288016126e7565b9450506020612863878288016126e7565b935050604061287487828801612765565b925050606085013567ffffffffffffffff81111561289157600080fd5b61289d8782880161273b565b91505092959194509250565b600080604083850312156128bc57600080fd5b60006128ca858286016126e7565b92505060206128db858286016126fc565b9150509250929050565b600080604083850312156128f857600080fd5b6000612906858286016126e7565b925050602061291785828601612765565b9150509250929050565b60006020828403121561293357600080fd5b600061294184828501612711565b91505092915050565b60006020828403121561295c57600080fd5b600061296a84828501612726565b91505092915050565b60006020828403121561298557600080fd5b600061299384828501612765565b91505092915050565b6129a581613bb7565b82525050565b6129b481613bc9565b82525050565b60006129c582613a5f565b6129cf8185613a75565b93506129df818560208601613c3a565b6129e881613dd5565b840191505092915050565b60006129fe82613a6a565b612a088185613a86565b9350612a18818560208601613c3a565b612a2181613dd5565b840191505092915050565b6000612a3782613a6a565b612a418185613a97565b9350612a51818560208601613c3a565b80840191505092915050565b60008154612a6a81613c6d565b612a748186613a97565b94506001821660008114612a8f5760018114612aa057612ad3565b60ff19831686528186019350612ad3565b612aa985613a4a565b60005b83811015612acb57815481890152600182019150602081019050612aac565b838801955050505b50505092915050565b6000612ae9602583613a97565b91507f68747470733a2f2f6e6674707265766965772e30786465762e636f6465732f3f60008301527f636f64653d0000000000000000000000000000000000000000000000000000006020830152602582019050919050565b6000612b4f603283613a86565b91507f4552433732313a207472616e7366657220746f206e6f6e20455243373231526560008301527f63656976657220696d706c656d656e74657200000000000000000000000000006020830152604082019050919050565b6000612bb5601c83613a86565b91507f4552433732313a20746f6b656e20616c7265616479206d696e746564000000006000830152602082019050919050565b6000612bf5600a83613a97565b91507f54484952445f574f5244000000000000000000000000000000000000000000006000830152600a82019050919050565b6000612c35602483613a86565b91507f4552433732313a207472616e7366657220746f20746865207a65726f2061646460008301527f72657373000000000000000000000000000000000000000000000000000000006020830152604082019050919050565b6000612c9b601983613a86565b91507f4552433732313a20617070726f766520746f2063616c6c6572000000000000006000830152602082019050919050565b6000612cdb600b83613a97565b91507f5345434f4e445f574f52440000000000000000000000000000000000000000006000830152600b82019050919050565b6000612d1b602c83613a86565b91507f4552433732313a206f70657261746f7220717565727920666f72206e6f6e657860008301527f697374656e7420746f6b656e00000000000000000000000000000000000000006020830152604082019050919050565b6000612d81600a83613a97565b91507f544558545f434f4c4f52000000000000000000000000000000000000000000006000830152600a82019050919050565b6000612dc1600d83613a97565b91507f3c2f746578743e3c2f7376673e000000000000000000000000000000000000006000830152600d82019050919050565b6000612e01603883613a86565b91507f4552433732313a20617070726f76652063616c6c6572206973206e6f74206f7760008301527f6e6572206e6f7220617070726f76656420666f7220616c6c00000000000000006020830152604082019050919050565b6000612e67602a83613a86565b91507f4552433732313a2062616c616e636520717565727920666f7220746865207a6560008301527f726f2061646472657373000000000000000000000000000000000000000000006020830152604082019050919050565b6000612ecd602983613a86565b91507f4552433732313a206f776e657220717565727920666f72206e6f6e657869737460008301527f656e7420746f6b656e00000000000000000000000000000000000000000000006020830152604082019050919050565b6000612f33602e83613a86565b91507f45524337323155524953746f726167653a2055524920736574206f66206e6f6e60008301527f6578697374656e7420746f6b656e0000000000000000000000000000000000006020830152604082019050919050565b6000612f99606083613a97565b91507f222c20226465736372697074696f6e223a20224120636f6c6c656374696f6e2060008301527f6f66206e69636b6e616d657320666f7220686f6f706572732e222c2022696d6160208301527f6765223a2022646174613a696d6167652f7376672b786d6c3b6261736536342c6040830152606082019050919050565b6000613025600283613a97565b91507f227d0000000000000000000000000000000000000000000000000000000000006000830152600282019050919050565b6000613065602083613a86565b91507f4552433732313a206d696e7420746f20746865207a65726f20616464726573736000830152602082019050919050565b60006130a5603183613a86565b91507f45524337323155524953746f726167653a2055524920717565727920666f722060008301527f6e6f6e6578697374656e7420746f6b656e0000000000000000000000000000006020830152604082019050919050565b600061310b602c83613a86565b91507f4552433732313a20617070726f76656420717565727920666f72206e6f6e657860008301527f697374656e7420746f6b656e00000000000000000000000000000000000000006020830152604082019050919050565b6000613171602c83613a86565b91507f546f74616c20616c6c6f77656420746f206265206d696e74656420686173206260008301527f65656e20726561636865642e00000000000000000000000000000000000000006020830152604082019050919050565b60006131d7601083613a97565b91507f4241434b47524f554e445f434f4c4f52000000000000000000000000000000006000830152601082019050919050565b6000613217602983613a86565b91507f4552433732313a207472616e73666572206f6620746f6b656e2074686174206960008301527f73206e6f74206f776e00000000000000000000000000000000000000000000006020830152604082019050919050565b600061327d602f83613a86565b91507f4552433732314d657461646174613a2055524920717565727920666f72206e6f60008301527f6e6578697374656e7420746f6b656e00000000000000000000000000000000006020830152604082019050919050565b60006132e3600a83613a97565b91507f7b226e616d65223a2022000000000000000000000000000000000000000000006000830152600a82019050919050565b6000613323602183613a86565b91507f4552433732313a20617070726f76616c20746f2063757272656e74206f776e6560008301527f72000000000000000000000000000000000000000000000000000000000000006020830152604082019050919050565b6000613389600a83613a97565b91507f46495253545f574f5244000000000000000000000000000000000000000000006000830152600a82019050919050565b60006133c9601d83613a97565b91507f646174613a6170706c69636174696f6e2f6a736f6e3b6261736536342c0000006000830152601d82019050919050565b6000613409603183613a86565b91507f4552433732313a207472616e736665722063616c6c6572206973206e6f74206f60008301527f776e6572206e6f7220617070726f7665640000000000000000000000000000006020830152604082019050919050565b61346b81613c21565b82525050565b600061347d8284612a2c565b915081905092915050565b60006134948285612a2c565b91506134a08284612a2c565b91508190509392505050565b60006134b88286612a2c565b91506134c48285612a2c565b91506134d08284612a2c565b9150819050949350505050565b60006134e98289612a5d565b91506134f58288612a2c565b91506135018287612a5d565b915061350d8286612a2c565b91506135198285612a5d565b91506135258284612a2c565b915061353082612db4565b9150819050979650505050505050565b600061354b82612adc565b91506135578284612a2c565b915081905092915050565b600061356d82612be8565b91506135798284612a2c565b915081905092915050565b600061358f82612cce565b915061359b8284612a2c565b915081905092915050565b60006135b182612d74565b91506135bd8284612a2c565b915081905092915050565b60006135d3826131ca565b91506135df8284612a2c565b915081905092915050565b60006135f5826132d6565b91506136018285612a2c565b915061360c82612f8c565b91506136188284612a2c565b915061362382613018565b91508190509392505050565b600061363a8261337c565b91506136468284612a2c565b915081905092915050565b600061365c826133bc565b91506136688284612a2c565b915081905092915050565b6000602082019050613688600083018461299c565b92915050565b60006080820190506136a3600083018761299c565b6136b0602083018661299c565b6136bd6040830185613462565b81810360608301526136cf81846129ba565b905095945050505050565b60006040820190506136ef600083018561299c565b6136fc6020830184613462565b9392505050565b600060208201905061371860008301846129ab565b92915050565b6000602082019050818103600083015261373881846129f3565b905092915050565b6000604082019050818103600083015261375a81856129f3565b90506137696020830184613462565b9392505050565b6000606082019050818103600083015261378a81866129f3565b90506137996020830185613462565b6137a6604083018461299c565b949350505050565b600060208201905081810360008301526137c781612b42565b9050919050565b600060208201905081810360008301526137e781612ba8565b9050919050565b6000602082019050818103600083015261380781612c28565b9050919050565b6000602082019050818103600083015261382781612c8e565b9050919050565b6000602082019050818103600083015261384781612d0e565b9050919050565b6000602082019050818103600083015261386781612df4565b9050919050565b6000602082019050818103600083015261388781612e5a565b9050919050565b600060208201905081810360008301526138a781612ec0565b9050919050565b600060208201905081810360008301526138c781612f26565b9050919050565b600060208201905081810360008301526138e781613058565b9050919050565b6000602082019050818103600083015261390781613098565b9050919050565b60006020820190508181036000830152613927816130fe565b9050919050565b6000602082019050818103600083015261394781613164565b9050919050565b600060208201905081810360008301526139678161320a565b9050919050565b6000602082019050818103600083015261398781613270565b9050919050565b600060208201905081810360008301526139a781613316565b9050919050565b600060208201905081810360008301526139c7816133fc565b9050919050565b60006020820190506139e36000830184613462565b92915050565b6000604051905081810181811067ffffffffffffffff82111715613a1057613a0f613da6565b5b8060405250919050565b600067ffffffffffffffff821115613a3557613a34613da6565b5b601f19601f8301169050602081019050919050565b60008190508160005260206000209050919050565b600081519050919050565b600081519050919050565b600082825260208201905092915050565b600082825260208201905092915050565b600081905092915050565b6000613aad82613c21565b9150613ab883613c21565b9250827fffffffffffffffffffffffffffffffffffffffffffffffffffffffffffffffff03821115613aed57613aec613d19565b5b828201905092915050565b6000613b0382613c21565b9150613b0e83613c21565b925082613b1e57613b1d613d48565b5b828204905092915050565b6000613b3482613c21565b9150613b3f83613c21565b9250817fffffffffffffffffffffffffffffffffffffffffffffffffffffffffffffffff0483118215151615613b7857613b77613d19565b5b828202905092915050565b6000613b8e82613c21565b9150613b9983613c21565b925082821015613bac57613bab613d19565b5b828203905092915050565b6000613bc282613c01565b9050919050565b60008115159050919050565b60007fffffffff0000000000000000000000000000000000000000000000000000000082169050919050565b600073ffffffffffffffffffffffffffffffffffffffff82169050919050565b6000819050919050565b82818337600083830152505050565b60005b83811015613c58578082015181840152602081019050613c3d565b83811115613c67576000848401525b50505050565b60006002820490506001821680613c8557607f821691505b60208210811415613c9957613c98613d77565b5b50919050565b6000613caa82613c21565b91507fffffffffffffffffffffffffffffffffffffffffffffffffffffffffffffffff821415613cdd57613cdc613d19565b5b600182019050919050565b6000613cf382613c21565b9150613cfe83613c21565b925082613d0e57613d0d613d48565b5b828206905092915050565b7f4e487b7100000000000000000000000000000000000000000000000000000000600052601160045260246000fd5b7f4e487b7100000000000000000000000000000000000000000000000000000000600052601260045260246000fd5b7f4e487b7100000000000000000000000000000000000000000000000000000000600052602260045260246000fd5b7f4e487b7100000000000000000000000000000000000000000000000000000000600052604160045260246000fd5b6000601f19601f8301169050919050565b613def81613bb7565b8114613dfa57600080fd5b50565b613e0681613bc9565b8114613e1157600080fd5b50565b613e1d81613bd5565b8114613e2857600080fd5b50565b613e3481613c21565b8114613e3f57600080fd5b5056fe416e204e465420772f20494420257320686173206265656e206d696e74656420746f2025734142434445464748494a4b4c4d4e4f505152535455565758595a6162636465666768696a6b6c6d6e6f707172737475767778797a303132333435363738392b2fa264697066735822122070896328d046af7d789a98703867aee3120921127935c272b0e7d15502aab6a964736f6c634300080000333b20666f6e742d66616d696c793a2073657269663b20666f6e742d73697a653a20323470783b207d3c2f7374796c653e3c726563742077696474683d273130302527206865696768743d2731303025272066696c6c3d2727202f3e3c7465787420783d273530252720793d273530252720636c6173733d27626173652720646f6d696e616e742d626173656c696e653d276d6964646c652720746578742d616e63686f723d276d6964646c65273e4861766520746f206d616b652073757265207468697320697320776f726b696e672e3c73766720786d6c6e733d27687474703a2f2f7777772e77332e6f72672f323030302f73766727207072657365727665417370656374526174696f3d27784d696e594d696e206d656574272076696577426f783d273020302033353020333530273e3c7374796c653e2e62617365207b2066696c6c3a20",
  "linkReferences": {},
  "deployedLinkReferences": {}
}